:020000040800F2
:10000000D805012061020008DF7B0008B564000804
:10001000DD7B00085119000815E30008000000000E
:10002000000000000000000000000000A101000826
:10003000651F000800000000FD010008B1BB0008BA
:100040007B0200087B0200087B0200087B0200089C
:100050007B0200087B0200087B0200087B0200088C
:100060007B0200087B0200087B0200087B0200087C
:10007000D91D00087B0200087B020008E51D00086E
:100080007B020008F11D00087B0200087B020008CB
:10009000A51900087B0200087B0200087B0200080B
:1000A0007B0200087B0200087B0200087B0200083C
:1000B00071BC00087DBC000889BC00087B020008F8
:1000C0007B0200087B0200087B0200087B0200081C
:1000D0007B020008D1C30008DDC30008E9C30008A3
:1000E0007B0200087B0200087B0200087B020008FC
:1000F0007B0200087B0200087B0200087B020008EC
:100100007B0200087B0200087B0200087B020008DB
:100110003DC000087B0200087B02000895BC000877
:10012000FD1D00087B0200087B0200087B0200081E
:100130007B0200087B0200087B0200087B020008AB
:100140007B020008FD1900087B020008897F000877
:100150007B0200087B020008091E00087B020008E1
:100160007B0200087B0200087B0200087B0200087B
:100170007B0200087B0200087B02000800000000F0
:100180007B0200087B020008DFF810D000F086FC3C
:1001900000480047F1280108AFF30080D80501208E
:1001A0002C4B19680868B0E8F04F80F30988BFF35A
:1001B0006F8F4FF0000080F311887047000000003F
:1001C00008480068006880F308884FF0000080F35A
:1001D000148862B661B6BFF34F8FBFF36F8F00DF35
:1001E00000BF00BF08ED00E0DFF80C00016841F43B
:1001F00070010160704700BF88ED00E0EFF30980F7
:10020000BFF36F8F134B1A681EF0100F08BF20ED5D
:10021000108A20E9F04F106009B44FF0500080F3CD
:100220001188BFF34F8FBFF36F8F15F045FC4FF070
:10023000000080F3118809BC19680868B0E8F04F25
:100240001EF0100F08BFB0EC108A80F30988BFF3CE
:100250006F8F704748000020EFF305807047000063
:100260000648804706480047FEE7FEE7FEE7FEE750
:10027000FEE7FEE7FEE7FEE7FEE7FEE761BC0008FB
:10028000890100082DE9F05F0546002092469B4653
:1002900088460646814640241BE02846414647469C
:1002A000224600F0EEF953465A46C01A914110D347
:1002B00011461846224600F0D5F92D1A67EB0108C1
:1002C0004F4622460120002100F0CCF917EB00092F
:1002D0004E41201EA4F10104DFDC484631462A4687
:1002E0004346BDE8F09F40EA01039B0703D009E0C5
:1002F00008C9121F08C0042AFAD203E011F8013B12
:1003000000F8013B521EF9D27047D2B201E000F86A
:10031000012B491EFBD270470022F6E710B51346A9
:100320000A4604461946FFF7F0FF204610BD421E5C
:1003300012F8013F002BFBD111F8013B02F8013B01
:10034000002BF9D17047421C10F8011B0029FBD18A
:10035000801A70472DE9FE4F804681EA0300C00FE6
:100360000C46009021F0004123F00045B8EB02005C
:10037000A94105D24046214690461C460B460246FE
:1003800023F00040104347D0270DC7F30A00C3F302
:100390000A510290401A019040286BDAC3F313000F
:1003A00040F4801B0098924620B10023D2EB030A50
:1003B00063EB0B0B01985946C0F14002504600F028
:1003C00051F906460D4650465946019A00F069F922
:1003D00010EB08006141002487EA115284EAE773B8
:1003E0001A4340D0009A62B3019A012A4FEA075299
:1003F00015DC001B61EB02014FF0004202EA0752DC
:10040000CDE90042001C41F5801132462B4600F038
:10041000A0F903B0BDE8F08F40462146F9E7001B84
:1004200061EB0201001C41F5801300185B412018AC
:10043000A2F5001747EB030140EAD570B6196D41EC
:1004400011E06D084FEA360645EAC0754FEA0752DB
:10045000001B61EB0201001C41F5801149084FEAC5
:1004600030000019514132462B4603B0BDE8F04F31
:1004700000F060B90098012240000023D0EB020296
:1004800063EBE073009821464FEAE074B8EB00009C
:1004900061EB0401E9E783F000435BE781F0004191
:1004A00058E72DE9FE4F81EA030404F0004421F0EF
:1004B000004100944FF0000B23F0004350EA010488
:1004C0005ED052EA03045BD0C3F30A54C1F30A5569
:1004D0002C44A4F2F3340194A0FB0254C1F31301A1
:1004E00041F48011C3F3130343F4801301FB02446E
:1004F00000FB034E840A970A44EA815447EA835773
:10050000A4FB076802958D0A05FB07854FEA932C2B
:1005100004FB0C542705029D4FEA065847EA16379C
:10052000B5EB08056EEB070C870E920E47EA8117B4
:1005300042EA8312A7FB0201B6EB0B0164EB000455
:100540002B0D43EA0C335E1844EB1C50DA4651463F
:10055000E7FB0201C5F313044FEA0B3343EA1453DC
:100560004FEA0432019C43EA0603A4F10C0402940E
:10057000009CCDE900B400F0ECF803B0BDE8F08FCA
:1005800000200146F9E70EB5C10F80EAE07008448B
:10059000CA07002140F233438DE80E000A460B469D
:1005A00000F0D7F803B000BDC1F30A5210B5C1F393
:1005B000130140F2FF3341F480119A4201DA002026
:1005C00010BD40F233439A42A2F2334203DC52425E
:1005D00000F057F810BD904010BD00F0004230F020
:1005E00000400AD0C10D01F56071C0F3160042EA67
:1005F0000151C2084007114370470020014670476F
:1006000001F0004330B421F0004150EA010206D06D
:100610000A0DA2F56072C1F31301002A02DC30BC9E
:1006200000207047440F44EAC104C100E01830BC08
:1006300000EBC25000F047B830B50B460146002031
:100640002022012409E021FA02F59D4205D303FA94
:1006500002F5491B04FA02F52844151EA2F1010215
:10066000F1DC30BD202A04DB203A00FA02F1002040
:1006700070479140C2F1200320FA03F319439040E0
:100680007047202A04DB203A21FA02F0002170474B
:1006900021FA02F3D040C2F12002914008431946EA
:1006A0007047202A06DBCB17203A41FA02F043EAD2
:1006B000E07306E041FA02F3D040C2F1200291401B
:1006C0000843194670470029A8BF7047401C4900DD
:1006D00008BF20F00100704710B4B0FA80FC00FAA7
:1006E0000CF050EA010404BF10BC704749B1CCF1D2
:1006F000200421FA04F411FA0CF118BF012121435E
:100700000843A3EB0C01CB1D4FEA00614FEA102018
:1007100042BF002010BC704700EBC35010440029BA
:10072000A4BF10BC7047401C490008BF20F0010066
:1007300010BC704710B5141E73F1000408DA401C99
:1007400041F1000192185B411A4301D120F00100F0
:1007500010BD2DE9F04D92469B4611B1B1FA81F2E0
:1007600002E0B0FA80F220329046FFF77BFF0446A9
:100770000F4640EA0A0041EA0B0153465A46084335
:1007800013D0114653EA010019D0C8F14002504677
:10079000FFF777FF05460E46504659464246FFF79B
:1007A00061FF084305D0012004E020463946BDE83A
:1007B000F08D0020054346EAE0762C4337430A9843
:1007C0006305E40AA0EB08000022FD0A44EA47544E
:1007D0000A3002D500200146E9E7010510196941F8
:1007E000DDE9084500196941BDE8F04DA2E72DE9B2
:1007F000F04D81EA030404F0004B21F0004514465B
:100800004FF0000A23F0004150EA050220D054EADC
:1008100001021DD0C5F30A570246C5F31303C1F305
:100820001300C1F30A5640F4801543F48013A7EB7C
:100830000608101BD64608F2FD3873EB050002D3FC
:1008400008F1010801E092185B41B8F1000F03DAEA
:1008500000200146BDE8F08D00204FF480110646CF
:1008600084460EE0171B73EB050705D3121B63EBE1
:10087000050306434CEA010C49084FEA3000921880
:100880005B4150EA0107EDD152EA030012D082EA3F
:10089000040083EA0501084305D0101BAB4106D2D2
:1008A0000122002306E000224FF0004302E06FF037
:1008B000010253101AEB06004CEB085110EB0A0032
:1008C00041EB0B01BDE8F04DFFF734BF70B521F0EF
:1008D000004303430CD0C1F30A550024D5EB0405B3
:1008E00064EB0403D617AD1AB34102DB00200146C6
:1008F00070BD201841EB025170BD00002DE9F041A0
:10090000054621F000400C46284309D0C4F30A50A4
:1009100040F23341884205DD28462146BDE8F0819A
:100920002846FBE740F2FE31884210DC0CDB4FEA40
:10093000043040EA155050EA053105D0104804F063
:10094000004101430020E9E700200146E6E7A0F26C
:1009500033404642C6F1400228462146FFF782FE58
:1009600007468846284621463246FFF78AFE434618
:100970003A46FFF7DFFE3246BDE8F041FFF772BEB0
:100980000000F03F2DE9FE4FC3F30A5701F0004588
:100990000024C1F30A56C3F31303C1F3130143F454
:1009A000801312EB020AA64641F48011009543EB36
:1009B000030CA7F1010B16E0B0EB0A0061EB0C0190
:1009C000071E71F1000707DA4FF00008D0EB0800AE
:1009D00085F0004568EB0101171A73EB0107EBD3B3
:1009E000761E001849415E45F6DA50EA010209D048
:1009F000CDE900E5002213460296FFF7AAFE03B0F8
:100A0000BDE8F08F20460099F9E7C1F30A52C1F31F
:100A1000130140F2FF3341F480119A4202DA0020C0
:100A20000146704740F233439A42A2F2334202DC5D
:100A30005242FFF726BEFFF715BE000030B5041E78
:100A400071F1000404DB4FF00044404264EB01010B
:100A5000141E73F1000405DB1C464FF000435242A4
:100A600063EB04038B4208BF824230BD30B5041EE5
:100A700071F1000404DB4FF00044404264EB0101DB
:100A8000141E73F1000405DB1C464FF00043524274
:100A900063EB0403994208BF904230BD064C074DFA
:100AA00006E0E06840F0010394E80700984710343E
:100AB000AC42F6D3FFF76CFBFC7B01081C7C010801
:100AC0002DE9F04D00231A461B1A8A4103DB002052
:100AD0000146BDE8F08DC1F30A52C1F3130141F4A0
:100AE00080154FF0000BD10702D100186D41521E46
:100AF0000027044640F2FF11384601EB620A3E46E9
:100B00008046024600204FF48011FFF7BAFDC2195B
:100B10007141BB1846EB0100B4EB030C75EB000C04
:100B200004D3E41A65EB000517460E46241908F1B4
:100B300001006D4180463428E3DDF91946EB0600DB
:100B4000091BA84103D24FF0FF32134601E00022F7
:100B500013461BEB070046EB0A51BDE8F04DFFF7CB
:100B6000E9BD0EB540F2334102910021CDE90011FB
:100B70000A460B46FFF7EDFD03B000BD70B5C1F3AB
:100B80000A5201F000450024C1F3130140F2FF3383
:100B900041F480119A4201DA002070BD40F23343E3
:100BA0009A42A2F2334203DC5242FFF76AFD00E0B0
:100BB00090402C43F1D0404270BD70B58C1810F8B5
:100BC000015B15F0070301D110F8013B2A1106D192
:100BD00010F8012B03E010F8016B01F8016B5B1EAC
:100BE000F9D12B0705D40023521E0DD401F8013B87
:100BF000FAE710F8013BCB1A921C03E013F8015BF3
:100C000001F8015B521EF9D5A142D8D3002070BD76
:100C100010B50146806B026C12F0500F05D0026CCB
:100C2000D20626D501F084FD10BD016C41F400719F
:100C3000016401688A6812F0405F17D1027EAAB988
:100C4000CA6A12F4700F02D08A6852050ED44A683C
:100C500022F020024A60016C21F480710164016C71
:100C6000C90403D4016C41F00101016401F05EFD8F
:100C700010BD806BC26CBDE810400846104710B52F
:100C8000806B40210164416C41F00401416401F03A
:100C90004FFD10BD10B5806B01F049FD10BD000087
:100CA000464910B54A6822F440324A604A684368AF
:100CB0001A434A6001684A6822F480724A600168F7
:100CC0004A68036942EA03224A6001684A6822F0DE
:100CD00040724A6001684A6883681A434A60016842
:100CE0008A6822F400628A6001688A68C3681A43CD
:100CF0008A60816A6FF07062D14201688A6822F06E
:100D000070628A6001688A680CD0836A1A438A60BC
:100D100001688A6822F040528A6001688A68C36A62
:100D20001A4301E022F040528A6001688A6822F08A
:100D300002028A6001688A68037E42EA43028A608E
:100D400090F82010002901684A680FD042F4006230
:100D50004A6001684A6822F460424A6001684A6851
:100D6000174C436A04EB43331A4301E022F4006258
:100D70004A600168CA6A22F47002CA620168CA6ADB
:100D8000838B104C04EB03531A43CA6201688A68D0
:100D900022F400728A6001688A6890F8303042EA72
:100DA00043228A6001688A6822F480628A6001684E
:100DB0008A68406942EA8020886010BD00230140B3
:100DC00000E0FFFF0000F0FFA0220249024801F00E
:100DD00027BD000038E60020580700202DED028BCB
:100DE00088B015F0CFFC00255D4F2E469FED5D8A43
:100DF000DFF874B1DFED5D8ADFF87481DFF874A18C
:100E00005D4CA946079000223878134606281FD269
:100E1000DFE800F0030E0E03032694ED0A0A20EE2D
:100E2000080ABDEEC00A10EE102A94ED0C0A09E083
:100E300094ED0A0A20EE080ABDEEC00A10EE102A50
:100E400094ED100A20EE080ABDEEC00A10EE103A2A
:100E500094ED030A10EE100A58450CDA484626E0D5
:100E600094ED0A0A20EE080ABDEEC00A10EE102A20
:100E700094ED140AE6E710EE100A4049884211DCAE
:100E800030EE680A9FED3E1AC0EE010A9FED3D1A52
:100E9000B6EE000A00EE810ABDEEC00A10EE100A9E
:100EA000642801DD642002E0002800DC00206D1CC5
:100EB000EDB2012D02D0022D0DD026E098ED020AF0
:100EC000009031A1BDEEC00A33488DED010A0DF04E
:100ED00075FE314E19E098ED020A2F480025BDEE4F
:100EE000C00A2EA164308DED000A98ED000ABDEE17
:100EF000C00A10EE103A98ED010ABDEEC00A10EEDD
:100F0000102A0DF05BFE244E64369AF80300012887
:100F100017D126498AF80390CA88CDE90329CDF86C
:100F20001490CDF8189088884A8809880091CDE9F6
:100F30000120B4F908201EA12548A3690DF03EFE4A
:100F4000234E607F38B93046FFF7FDF982B2314653
:100F5000204804F0F5FD322107A814F0E7FB52E722
:100F600008EF002000007A446666A2416666A2414E
:100F7000C0E70020520300205C0500209A99BB4185
:100F8000A09949400000C8427B4125643A25643A53
:100F900025643A25647D2400A2E800207B42256474
:100FA0003A25643A25647D2400000000E801002011
:100FB0007B4325643A25643A25643A25643A2564DE
:100FC0003A25643A25643A25643A25647D24000074
:100FD00006EB0020D80A00202DE9F0413B4C00260A
:100FE000054694F806C024A32FA2BCF1000F0BD035
:100FF000204600274079411CC9B2BCF1010F16D030
:10100000BCF1020F34D125E030490220432D09798B
:1010100002D0442D05D02BE02B2929D10121A1712B
:1010200002E02B2924D1A0710126607120E01A5C16
:10103000AA4209D00D38102808D8A5F13000092897
:1010400002D93138192801D8012600E0A771617151
:10105000184607E0105CA84201D1012600E0A77104
:1010600061711046FFF76FF96179884200D1A7716D
:1010700025713046BDE8F0812B434F4E4E45435419
:10108000494E473C3C58583A58583A58583A58589C
:101090003A58583A58580D0A2B434F4E4E45435430
:1010A00045440D0A000000002B444953433A535570
:1010B00043434553530D0A2B52454144590D0A2BC6
:1010C0005041495241424C450D0A0000480300205E
:1010D0002DE9F041484C0026054694F809E035A377
:1010E0003CA240A1BEF1000F10D02046002790F88E
:1010F00008C0BEF1010F0CF10100C0B223D0BEF157
:10110000020F36D0BEF1030F50D13FE03A48022122
:10111000432DC07904D04F2D0AD0442D0CD045E08A
:101120002B2803D0432841D001263FE0012006E0D0
:1011300043283BD1617203E02B2837D10320607232
:101140000126217232E013F80C10A9420BD0ACF149
:101150000D0CBCF1100F08D8A5F13001092902D9F6
:101160001139192901D8012600E06772207218464A
:1011700008E012F80C10A94201D1012600E06772C4
:1011800020721046FFF7DFF8217A0CE011F80C20EE
:10119000AA4201D1012600E0677220720846FFF7DB
:1011A000D2F8217A401C884200D16772E57130463E
:1011B000BDE8F0812B434F4E4E454354494E473CCA
:1011C0003C58583A58583A58583A58583A58583A51
:1011D00058580D0A434F4E4E45435445440D0D0A91
:1011E000000000002B444953433A535543434553B1
:1011F000530D0D0A0000000048030020DFF8C491E1
:101200006E4EDFF8BCA1DFF8C0814FF07C5B2DEDA6
:10121000028B88B0002509F104049FED6C8A00BFA1
:101220004FF4FA7204A9306814F0F6FF01280BD0CD
:10123000257084ED028A84ED038AA571E57025711D
:101240006570A5706571EBE761480FC88DE80F0008
:1012500001202070BDF8140040BA00B200EE100A60
:10126000B8EEC01A9FED5B0AC1EE000ACDED010A8F
:10127000BDF8180040BA00B201EE100AB8EEC11A6B
:10128000C1EE001ACDED031A9AF80000022801D031
:1012900005280DD150484168594503DB4F4949683D
:1012A000594505DAB6EE000A20EE800A8DED010AF6
:1012B0009DF81630E3719DF81700C0EB0010400058
:1012C00000EE100AB8EE400ADFED450A80EE201A63
:1012D00084ED031A9DF81A0000F0010CC0F34012CF
:1012E00084F806C0C0F30011E2702171C0F3C0079A
:1012F000A770C0F380006070114438440818607112
:1013000002D0BCF1000F05D08DED038A8DED028A6D
:101310008DED018AAB2B08D13249D8F80C008842F8
:1013200003DD8DED018A8DED028A9DF81B0080287A
:1013300009D9C0F58070A0EB0010400000EE100A43
:10134000B8EEC00A06E0C0EB0010400000EE100A44
:10135000B8EE400A012084ED020A9DED010AB5EEC7
:10136000C00AF1EE10FA26D19DED020AB5EEC00AD0
:10137000F1EE10FA1FD19DED030AB5EEC00AF1EEB1
:1013800010FA18D199F80020521CD2B289F8002026
:101390000A2A03D900200A2289F8002098F811109F
:1013A00001297FF450AF00283FF44DAF002168467B
:1013B0000DF02EFA34E789F80050EFE72400002002
:1013C00008EF00202C0500205C0500200000000034
:1013D0006C76010800007A4438040020680400207C
:1013E0000000C8420000C4412DED068B002090B0E3
:1013F00005468DF800004FF001080646DFEDFA8A39
:10140000DFF8E8A3DFF8E8B3B0EE688A8146DFEDE5
:10141000F9AA9FEDF9AAF94C4FF0FF326946DBF8C3
:10142000000014F0F9FE0128F6D19DF800000DF03F
:101430006DFB412D08D19DF80000412804D1B9F180
:10144000000F01D14FF00109ED480DF1040C0FC858
:101450008CE80F009DF80000FFF73AFE07469DF864
:101460000000FFF7B9FD384410F0FF0FD4D19DF80C
:10147000000008F0F7F99DF800104B2904D04A2924
:1014800004D0492904D005E0022002E0012000E058
:1014900000208046D94AA1F140000A32C0B2431E62
:1014A00082F80180072B02D8403D854200D10646D4
:1014B000D2480D460A3006709FEDD20A062E31D072
:1014C00006DC062E6BD2DFE806F06A1014181B202B
:1014D000182E4BD004DC072E35D0082E5FD135E016
:1014E000192E47D01A2E5AD149E0C748B0F9080042
:1014F0000FE0C548B0F9080018E0CDED028A1DE004
:10150000C148B0F90800404223E0BF48B0F90800E4
:10151000404200EE100AB8EEC00AC0EE0A0ACDED55
:10152000020A2EE0B848B0F90800404200EE100A66
:10153000B8EEC00AC0EE0A0ACDED020ACDED038A6C
:10154000CDED04AA21E0CDED028A0AE0AE48B0F963
:10155000080000EE900AF8EEE00A80EE8A1A8DED9F
:10156000021ACDED038A8DED040A0EE0A64801892A
:10157000643102E0A4480189643901810FE0CDEDB6
:10158000028ACDED038ACDED048AB9F1000F06D0B1
:10159000002101A80DF03CF908B14FF000099DF8B9
:1015A000000061280ED0622812D063281BD0642866
:1015B0001DD065285AD0662860D0672866D0682874
:1015C00067D03AE0914FB8688047F868804704E0F8
:1015D0008D48417C29B100214174C821DAF81020DE
:1015E00029E00121F8E7884801210174F5E78648E0
:1015F000C07C012806D0E078401CC0B2E07003280F
:1016000005D020E080490020E070C874E5E700279D
:1016100006E07F4850F8270009F009FF7F1CFFB261
:101620007C484078B842F4D877490120C874DAF889
:1016300010204FF47A71012090479DF800007B281C
:101640002AD07D2837D02078012827D002287FF49F
:10165000E3AE7149C878502830D0572833D0487845
:101660000F4623287DD06078A07089E06648417DD0
:1016700011B100214175B0E70121FBE76248017F0C
:1016800011B100210177A8E70121FBE711F0A4FACD
:10169000A3E711F0A9FAA0E70120207060783222B8
:1016A000B0FBF2F102FB11025B499DF80030401CD7
:1016B0008B546070B0E602202070CAE74F490120C9
:1016C0000A31C870BCE04D4801270A308770534882
:1016D0000AF061F852480AF05EF852480AF05BF8E6
:1016E0008DF80470CDED028ACDED038ACDED048A2C
:1016F000002101A80DF08CF8C82013F0F1FF13F0C1
:1017000017FF4148B0F90810059180690690022141
:1017100005A80CF00FFE074613F02AFFCFBB4FF4CD
:101720007A71DAF8102089E06178081AFEF72BFF49
:1017300041EC110B9FED3C0B0EF036F93648A778C3
:10174000B0EE409A3844F0EE609A10F8010C303850
:10175000FEF719FF53EC192BFEF7A3FE41EC190B12
:1017600000E084E018EE100AFEF737FF53EC192B67
:10177000FEF7F0FDFEF744FF08EE100A7F1EA7708B
:10178000A0780428D0D2244840783038062857D290
:1017900000E055E0DFE800F0030A1018204CBDEE31
:1017A000C80A194910EE100A088144E0BCEEC80AC4
:1017B000154880ED060A3EE0BCEEC80A10EE100A9D
:1017C00080B209F0EBFC36E0BCEEC80A10EE100A5D
:1017D00080B209F0ADFC2EE0BCEEC80A10EE100A93
:1017E00080B209F06FFC26E000000000D400002069
:1017F0001C000020DB0F49BF00007A444803002092
:101800005C760108DB0F493F5C0500209C0100204D
:101810005C02002008EF002070E80020F0010020AA
:1018200014020020380200200000000000002440C4
:10183000BCEEC80A81E0DAF81020C82101209047E8
:101840004148B0F90810002901DA002101818169BD
:10185000642901D964218161002020706070A0702A
:10186000B0EE688A32213948FEF756FDD4E50020F3
:101870000590B0EE688A242106A8FEF74DFD607839
:101880003228DDD87D2139543B460021F2EE040A8E
:1018900006AF1DE0A2F1300009280AD800EE100AB8
:1018A000B0EE481AB8EEC00AB0EE408A01EE208AC7
:1018B0000CE03A2A0AD1059807EB800080ED008AF7
:1018C0000598B0EE688A401CC0B20590491CC9B2A8
:1018D0005A5C7D2ADED1059807EB800080ED008AF6
:1018E0009DED060A1848BDEEC00A10EE101A0181DF
:1018F0009DED070ABCEEC00A80ED060A9DED080AC0
:10190000BCEEC00A10EE100A80B209F047FC9DED53
:10191000090ABCEEC00A10EE100A80B209F008FCF9
:101920009DED0A0ABCEEC00A10EE100A80B209F062
:10193000C9FB9DED0B0ABCEEC00A10EE100A80B286
:1019400009F08AFB77E700005C05002070E80020C2
:10195000FEE7000030B58BB0012014F0A9FA104C5E
:10196000E0602078012818D000200125CDE9060587
:101970000590009001900290039004900E20CDE914
:1019800008506946606801F06FF8606801F0FCFC7F
:101990000221606800F0EEFF25700BB030BD000042
:1019A00040010020014801F076B900000008002045
:1019B00030B58BB0012014F07BFA0F4C20616078B9
:1019C000012817D00E20059000200125CDE906053D
:1019D000009001900290CDE9030508956946A06842
:1019E00001F042F8A06801F0CFFC1021A06800F0DF
:1019F000C1FF65700BB030BD40010020014801F00F
:101A00004AB90000280800202DE9F04786B00446B6
:101A10000078DDE90EA34FF0FF39444FA0F1010C2F
:101A20004E466D464FF00008BCF17F0F15D200F511
:101A3000C0604FF0400C00908DF804C000208DF87D
:101A40000510090A8DF806108DF8072041462A185E
:101A5000401CC0B211720428F9D30125ABB11D4658
:101A600013E0606901A9401C60617B68009808224E
:101A700098472F48052203A9006814F0CDFB0128E0
:101A80002BD0A0694E46401CA0616D1EEDB2E8D27D
:101A900094ED060AF8EE400A94ED050AB8EE400A05
:101AA00080EE801A9FED230A61EE000A30EE600A94
:101AB00084ED010A14F066FEE169401A42F21071E9
:101AC000884206D9C4F81880C4F8148014F05AFE6D
:101AD000E06106B03046BDE8F0872078039900F554
:101AE000B060814209D19DF810004F280BD04B28DF
:101AF00009D0472807D0432805D0A0696FF0010618
:101B0000401CA061C1E79DF814109DF817009DF8D6
:101B1000152041EA00609DF81610090441EA0221EF
:101B200008430026CAF80000B2E700006001002068
:101B3000180000200000C8422DE9F04F8DB0044687
:101B4000DDE916070DF124090DF10C0C4D468DE869
:101B500021104FF0FF3A5646DFF8C480207800F09D
:101B600065F8012507B13D464FF0000B6D1EEDB243
:101B70002BD3606909F10401401C6061D8F804307E
:101B80000998082298472748052206A9006814F0FA
:101B900043FB0146039E069803AB864206AA4FF01C
:101BA00000000CD11E18171836793F79BE4201D0BB
:101BB000584604E0401CC0B20828F3D30120012994
:101BC00001D0564628E028B3002694ED060AF8EE28
:101BD000400A94ED050AB8EE400A80EE801A9FEDA7
:101BE000120A61EE000A30EE600A84ED010A14F078
:101BF000C9FDE169401A42F21071884206D9C4F861
:101C000018B0C4F814B014F0BDFDE0610DB030465A
:101C1000BDE8F08F6FF00106A069401CA061A5E748
:101C200060010020180000200000C842F0B5461EE8
:101C3000DDE90645059F7F2E28D200F5C0662660A7
:101C40000026012B23D0022B23D0032B23D02323C8
:101C500023716171090AA171E271F20027FA02F1A0
:101C6000A219761CF6B21172042EF6D300F5B060FC
:101C700028606020287160796871A079A871E07986
:101C8000E871002028726872A872E872F0BD2F23F4
:101C9000DEE72B23DCE72723DAE7034610B5002035
:101CA000024603E09C5C6040521C92B28A42F9D327
:101CB00010BD0000F8B5394C002139A260680369F5
:101CC000072098470C2500956068394E01230A21AA
:101CD0008768F2780920B8470095606801230A21D7
:101CE000876832792720B8470095606801230A2168
:101CF0008768B2784520B8470095606801230A21BB
:101D0000876872786320B8476068172129A2036941
:101D1000002098476068172128A203694B20984744
:101D2000D6ED020A9FED261A6068022380EE810A32
:101D3000172147691A461E20B8476068242121A24E
:101D40000369002098470095606801232421876873
:101D5000B2791E20B847606824211BA2036946207F
:101D600098470095606832780123242186686020B6
:101D7000B0476068322115A20369002098471548D2
:101D800000950123427C6068322185682320A847A2
:101D90006068806901B0BDE8F0400047580300204A
:101DA0004C4120204C422020524220205241000031
:101DB000300500206375723A000000004100000009
:101DC00000007A4473743A004F4C3A0072636D3AE3
:101DD000000000005C050020014801F063BB00002A
:101DE000880C0020014801F05DBB0000680B00205A
:101DF000014801F057BB0000280C0020014801F009
:101E000051BB0000A0070020014801F04BBB0000BF
:101E1000C80B002001681823CAB2103AB2FBF3F2D3
:101E2000054B6FF30901032A9B5CC36500D9091DAB
:101E30008165084670470000A86B010810B501468F
:101E400000208B698A6A4FF0C07453B1B3F5005F0C
:101E500015D072B1012A0CD0022A0AD0032A09D166
:101E600004E01AB1012A06D0022A03D1C96AC901C5
:101E700000D5012010BDC96AA142FAD010BD002AC8
:101E8000F7D0012AF2D0022AF3D0032AF3D010BDF2
:101E900030B50468256825F48025256004686360F2
:101EA0008368402B036803D099600068C26030BD2E
:101EB0009A600068C16030BD01484068704700000A
:101EC000001000E00748006840F080700549086095
:101ED0000020054948600846006840F0010008609D
:101EE00070470000FCED00E0001000E070B5044613
:101EF0000021084604EB8102491CC2F88809102918
:101F0000F8D300224FF40065A118521C81F81C017F
:101F1000AA42F9D3207060700121A170C4F8C809E9
:101F200021764022A271607684F81C0984F81D197C
:101F300084F81F0984F81E09090204F11C00FEF749
:101F4000EBF9294604F58E70FEF7E6F9122104F646
:101F50002610FEF7E1F93E2104F63810FEF7DCF911
:101F6000002070BD7047000070B58AB00D4606466F
:101F7000144618216846FEF7CFF900220792042084
:101F80000892CDE9020206920196032004908DF892
:101F900018508DF81940200A8DF81A0008AB06AACF
:101FA0006946024800F0F8FC0AB070BD280800201D
:101FB00030B500212DED028B85B0CC4C0091019104
:101FC0000291039190ED010AC7498DED010A90ED50
:101FD000020AB0EE0C8A8DED020A90ED030AD1EDF3
:101FE000030A30EE200A8DED030A617C01290CD131
:101FF0000078072809D0052807D09FEDBD0A8DED90
:10200000010A8DED020A8DED030A9FEDBA0AB6486A
:102010006946103009F0DEFC0121A06913F09EFD35
:10202000F0EE402A0021A06913F098FDB24DAE48B1
:10203000B0EE402A29781030F8EE0C1A052957D056
:1020400001297CD002297AD019B1032901D00429B1
:102050004AD190ED030AD5ED010AB6EE001A20EE42
:10206000203AD0ED010AB0EE600A43EE410A03EED9
:10207000010AB0EE481A60EEA22A20EE020AF0EE43
:10208000610AC4ED092A84ED0B0AB0EE620A12F06F
:1020900065FE84ED090A94ED0B0AB0EE481AF0EEE5
:1020A000610A12F05BFE84ED0B0AD5ED030A94ED94
:1020B000090A10F013FCB1EE400A84ED090AD5EDCF
:1020C000030A94ED0B0A10F009FC84ED0B0A287842
:1020D000002809D1D4ED090AB1EE400AF1EE600AF8
:1020E000C4ED090A84ED0B0A05B0BDEC028B30BDCE
:1020F000D5ED020A95ED010A90ED033A30EE801A13
:1021000090ED010AF0EE400A03EE410A43EE010AA7
:10211000B0EE481A20EE220A60EE820A84ED090A27
:1021200084ED0B0A84ED0D0AC4ED0F0AC4ED110A0B
:10213000C4ED130AF0EE610A12F010FE00E06AE04E
:1021400084ED090A94ED0B0AB0EE481AF0EE610A2C
:1021500012F004FE84ED0B0A94ED0D0AB0EE481A5D
:10216000F0EE610A12F0FAFD84ED0D0A94ED0F0A0B
:10217000B0EE481AF0EE610A12F0F0FD84ED0F0A9D
:1021800094ED110AB0EE481AF0EE610A12F0E6FD85
:1021900084ED110A94ED130AB0EE481AF0EE610ACC
:1021A00012F0DCFD84ED130AD5ED030A94ED090A63
:1021B00010F094FB84ED090AD5ED030A94ED0B0AA7
:1021C00010F08CFB84ED0B0AD5ED030A94ED0D0A9B
:1021D00010F084FB84ED0D0AD5ED030A94ED0F0A8F
:1021E00010F07CFBB1EE400A84ED0F0AD5ED030A36
:1021F00094ED110A10F072FBB1EE400A84ED110A61
:10220000D5ED030A94ED130A10F068FBB1EE400A15
:1022100084ED130A68E7D5ED020A95ED010A90ED09
:10222000031A70EE803AD0ED010AB0EE600A41EE7A
:10223000630AB0EE403A01EE233AB0EE481A20EEBF
:10224000A20A63EE020A84ED090A84ED0B0AC4EDCA
:102250000D0AC4ED0F0AF0EE610A12F07FFD84ED65
:10226000090A94ED0B0AB0EE481AF0EE610A12F07A
:1022700075FD84ED0B0A94ED0D0AB0EE481AF0EEF0
:10228000610A12F06BFD84ED0D0A94ED0F0AB0EEB9
:10229000481AF0EE610A12F061FD84ED0F0AD5EDE7
:1022A000030A94ED090A10F019FB84ED090AD5ED33
:1022B000030A94ED0B0A10F011FB84ED0B0AD5ED27
:1022C000030A94ED0D0A10F009FBB1EE400A84ED0B
:1022D0000D0AD5ED030A94ED0F0A10F0FFFAB1EEE6
:1022E000400A84ED0F0AFFE650E800205C0500205C
:1022F000000000000AD7A33C08EF002072B6FEE7FA
:10230000002229B101291AD002291BD04FF44072B2
:102310000E490B6823F440730B600B6813430B608A
:102320000A6822F0F8020A600A68022303EBC00080
:1023300002430A60086840F48030086070474FF438
:102340008072E5E74FF40072E2E70000103C0240C3
:102350001348016889050FD5016821F400710160F7
:10236000016841F400610160016821F400610160CD
:10237000016841F400710160016849050FD50168E9
:1023800021F480610160016841F4805101600168BD
:1023900021F480510160016841F48061016070475F
:1023A000003C024008490A6822F440720A600A6848
:1023B00042F004020A600A684FF4803343EA0020C6
:1023C00002430A6070470000103C0240064A13684E
:1023D00023F44073136013681360136843F0010320
:1023E0001360017070470000103C0240094910B5AD
:1023F0000C6824F440740C600C6844F440740C6065
:102400000C6844F001040C600260BFF36F8F4360FE
:1024100010BD0000103C0240074A136823F44073CB
:102420001360136843F480731360136843F001036F
:102430001360018070470000103C0240074A136897
:1024400023F440731360136843F40073136013683C
:1024500043F001031360016070470000103C02402C
:1024600017490868C206174805D5C26942F010022C
:10247000C26110220A600A68920605D5C26942F05C
:102480000802C26120220A600A68520605D5C269A4
:1024900042F00402C26140220A600A68120605D5B1
:1024A000C26942F00202C26180220A600A68920791
:1024B00005D5C26942F02002C2610220086070475F
:1024C0000C3C0240300D002070B51149044600203C
:1024D000C86101F0D3FB06460E4D09E0601C07D031
:1024E00024B101F0CBFB801BA04201D9032070BDB9
:1024F0002868C003F2D42868C00701D001202860F2
:10250000286810F0F200F2D0FFF7AAFF012070BD9A
:10251000300D00200C3C024070B5D04000F00100AE
:102520000C460870097B0026012505293AD2DFE810
:1025300001F00337091D330088B314F023F96060FC
:1025400002200AE014F01EF96168401AA0602178A8
:1025500029B1B0F57A7F25D90420207322E03228F2
:102560001FD314F00FF960600320F6E714F00AF9A6
:102570006168401AA06022784FF4C871012A04D023
:1025800088420FD32573012070BD8842FAD23228C9
:1025900008D92573022070BD2573032070BD01E0AA
:1025A00000B926730020F9E70B4A1278022A09D0F5
:1025B000052A07D002235AB1032A02D1074A026032
:1025C0000B707047054A283A026003200870704774
:1025D000024A103AF3E7000008EF0020D804002078
:1025E00078B50024009490F83C20012A19D00122EB
:1025F00080F83C200A6807230568092A13D9EE6889
:102600000A3A02EB420293409E43EE600B788A68DE
:102610000A3B03EB43039A400368DD682A43DA6010
:1026200010E0022078BD2E6902EB420293409E43E7
:102630002E610B788A6803EB43039A4003681D6997
:102640002A431A614A681F23072A13D205686E6B52
:10265000521E02EB820293409E436E630B790A88FE
:102660005B1E92B203EB83039A4003685D6B2A43BF
:102670005A6327E005680D2A12D22E6BD21F02EB97
:10268000820293409E432E630B790A88DB1F92B22D
:1026900003EB83039A4003681D6B2A431A6311E01E
:1026A000EE6A0D3A02EB820293409E43EE620B7992
:1026B0000A880D3B92B203EB83039A400368DD6AFC
:1026C0002A43DA62164B0568144A9D4206D10D680A
:1026D000122D03D1556845F48005556005689D426B
:1026E00018D10B68102B01D0112B13D1536843F470
:1026F00000035360096810290CD10A490A4A096885
:10270000B1FBF2F101EB8101490000E0491E0091AB
:102710000029FBD180F83C40002078BD0023014017
:10272000002001404400002040420F0070477047E5
:10273000704770B504004FF0000503D0206C0026F0
:1027400010B107E0012070BD204600F01DF866645E
:1027500084F83C60206CC00610D4206C20F48850B3
:1027600040F0020020642046FEF79AFA6664206C6E
:1027700020F0020040F00100206400E0012584F810
:102780003C60284670BD000070B586B00646142136
:102790006846FDF7C1FD1D493068884234D11C48A8
:1027A0000025016841F480710160006800F48070C8
:1027B000059017481438016841F004010160006871
:1027C000694600F0040005900C2000900320CDE93C
:1027D0000105104801F048F9104C0F48C4E9000504
:1027E0000015A560C4E90350400060618000A0614D
:1027F0004011C4E907052046656200F023FF08B1D7
:10280000FFF77CFDB463A66306B070BD00200140F5
:10281000443802400008024010640240A007002033
:10282000F8B5044600200E46009094F83C100129AB
:1028300007D0012184F83C1021688B68DB0702D0A7
:1028400011E00220F8BD8B6843F001038B60404922
:10285000404B0968B1FBF3F101EB410100E0491E77
:1028600000910029FBD121688B68DB0503D58B68BB
:1028700023F480738B6021688B68DB075DD0236C49
:1028800040F20165AB4343F4807323644968490512
:1028900005D5216C21F4005141F480512164216C53
:1028A000C90404D5616C21F00601616400E0606434
:1028B00084F83C00A16B2948274DC863A16B2848C8
:1028C0000864A16B2748C86421686FF02200086083
:1028D0002068416841F0806141602068816841F46E
:1028E000807181602168134632464C31A06B00F044
:1028F00013FF68681C49C006206806D0884224D1AE
:10290000816811F0405F13D01FE08842F8D0174A69
:10291000904203D1D1F80423D206F1D0144A904258
:1029200013D1D1F8041301F01F011029E8D30CE0F2
:10293000816841F08041816007E0206C40F0100028
:102940002064606C40F0010060640020F8BD00006D
:102950004400002040420F0000230140110C0008F9
:10296000950C00087F0C0008002001400021014068
:102970000022014090F82020012A07D0022A05D029
:10298000416A41F480214162012070470068426938
:102990000A43426100207047F0B590F82050046867
:1029A000A468012D05D0022D03D0416A41F4802195
:1029B00057E014F0406F01D1E5004FD5C4F3016436
:1029C0000125A5401D608D684FF4C0739DB1CE6890
:1029D00035434E6845EAC605066803EB0417F55112
:1029E0004FF4C275076805EB04150E697E51097D29
:1029F000012905D009E00E88CD6845EA4655EBE788
:102A000001684E5946F480764E511179D579567940
:102A100041EA056195792D0445EA062529434FF4DD
:102A2000C676056806EB0416A9511178D57841EAF7
:102A30000561957852782D0445EA022211434FF43E
:102A4000C475026805EB04155151006803EB0411CD
:102A5000425842F0010242500020F0BD416A41F468
:102A6000001141620120F0BD10B590F82020012A2C
:102A700007D0022A05D0416A41F480214162012039
:102A800010BD3B48D0F8002242F00102C0F80022FD
:102A9000D0F8002222F47C52C0F80022D0F80022A4
:102AA0004B6A42EA0322C0F800220A7D02F01F03AB
:102AB00001229A40D0F81C329343C0F81C32CB69F3
:102AC000B3B9D0F80C329343C0F80C328C894B6800
:102AD00064F31F434C6900EBC404C4F840320C8912
:102AE0000B6864F31F434C6900EBC404C4F8443220
:102AF000CB69012B16D1D0F80C321343C0F80C323D
:102B00000C884B6864F31F434C6900EBC404C4F8A1
:102B100040320C89CB6864F31F434C6900EBC4045A
:102B2000C4F844328B69002BD0F804320ED0134322
:102B3000C0F804320B69002BD0F8143208D01343CC
:102B4000C0F81432096A012904D008E09343EFE782
:102B50009343F5E7D0F81C121143C0F81C12D0F8CB
:102B6000001221F00101C0F80012002010BD000089
:102B700000640040704770B590F82040012C05D0EB
:102B8000022C03D0416A41F4802128E0046809B393
:102B90002469A40720D04FF4D874056804EB01140D
:102BA0002D5915F00405956005682D591AD0ED08CA
:102BB000556005682C5904F00204D4604FF4DA74AF
:102BC000056804EB01142E5906F00F06082E0CD3ED
:102BD00008250DE0E468DCE7416A41F40011416238
:102BE000012070BD6D0D1560E3E72D5905F00F054F
:102BF000156105682D59C5F30725956105682C59A0
:102C0000240C54614FF4DC72046802EB0112A458E6
:102C10001C700468A458240A5C700468A458240C2E
:102C20009C700468A258120EDA704FF4DE720468C9
:102C300002EB0112A4581C710468A458240A5C71A8
:102C40000468A458240C9C710468A258120EDA710E
:102C5000006829B1016941F020010161002070BDC7
:102C6000C16841F02001C160F8E70246002092F8F7
:102C70002010012901D002290CD111688A68520163
:102C800000D501208A68120100D5401C8968C9005E
:102C900000D5401C70472DE9F05F05460068002410
:102CA0004669D0F804908768D0F80CB0D0F810A02E
:102CB000D0F81880F10748D0F90714D001218160BD
:102CC000B80703D5284600F08CFB0CE0780702D546
:102CD0004FF4006407E0380702D54FF4805402E057
:102CE000284600F07DFBF80516D529684FF4807062
:102CF0008860B80503D5284600F075FB0CE0780520
:102D000002D544F4005407E0380502D544F4804469
:102D100002E0284600F066FBF80316D529684FF458
:102D200080308860B80303D5284600F05EFB0CE0D5
:102D3000780302D544F4004407E0380302D544F494
:102D4000803402E0284600F04FFB300707D55FEAE9
:102D5000CB6004D52968102044F40074C860700763
:102D60004FF0080707D55FEA0B7004D52868C760E5
:102D7000284600F099F9B00706D52868C068800792
:102D800002D0284600F092F9700607D55FEACA60C3
:102D900004D52968102044F480640861B00607D582
:102DA0005FEA0A7004D528680761284600F010FA27
:102DB000F00606D528680069800702D0284600F092
:102DC00009FAB00308D55FEAC96005D52968102063
:102DD0004860284600F0D6FAF00307D55FEA09708C
:102DE00004D528684760284600F000FB300446D52B
:102DF0005FEA497040D5F00504D55FEAC87001D09C
:102E000044F00104B00504D55FEA887001D544F0B0
:102E10000204700504D55FEA487001D544F004044B
:102E2000300529D518F0700F26D008F07000402822
:102E300015D006DC102809D020280AD0302816D159
:102E40000AE050280ED0602811D10EE044F00804AA
:102E50000DE044F010040AE044F0200407E044F0E0
:102E6000400404E044F0800401E044F480742868E5
:102E7000816921F070018161296804204860002C7B
:102E800005D0686A204368622846FFF773FEBDE8F4
:102E9000F09F70B5040003D094F8200010B104E056
:102EA000012070BD204600F081F82068016841F0E3
:102EB0000101016000F0E2FE0546052604E000F095
:102EC000DDFE401B0A2811D820684068C007F6D0F4
:102ED0002068016821F00201016000F0CFFE054684
:102EE0000BE000F0CBFE401B0A2806D9606A40F4D4
:102EF0000030606284F82060D2E720684068800774
:102F0000EFD4207E0128206801683DD021F08001A7
:102F10000160607E01282068016838D021F04001FE
:102F20000160A07E01282068016833D021F02001D3
:102F30000160E07E0128206801682ED041F0100178
:102F40000160207F01282068016829D021F0080154
:102F50000160607F01282068016824D021F004010D
:102F60000160D4E902010843D4E904121143084383
:102F70006168491E08432168C86100206062012021
:102F800084F82000002070BD41F08001C0E741F0CE
:102F90004001C5E741F02001CAE721F01001CFE769
:102FA00041F00801D4E741F00401D9E7F0B587B05A
:102FB000044614216846FDF7AFF9364B3648DFF872
:102FC000D0E01968D4F800C0334A03250226092747
:102FD00010300024491CF44522D11960012907D181
:102FE000016841F000710160006800F00070059018
:102FF000106840F0080010601068CDE9005600F03D
:103000000800CDE9047069462448CDE9024500F086
:103010002BFD00220521142001F0E8F8142033E0F4
:10302000DFF87CE0F44531D1D0F800C04CF0806C82
:10303000C0F800C0D0F800C001290CF0806CCDF8B9
:1030400014C0196007D1016841F000710160006887
:1030500000F000700590106840F0020010601068E9
:1030600002AB00F0020005904FF44050CDE900069D
:1030700083E8B00069460B4800F0F6FC0022052109
:10308000412001F0B3F8412001F0A2F807B0F0BDF3
:10309000006400403400002030380240000C024040
:1030A00000680040000402407047000010B58EB078
:1030B000002400946B4603AA21460194FFF75BFDB0
:1030C0000294002815D10598A8B1042811D10798B9
:1030D00002ABC2B26946049807F096FD0298002838
:1030E00007D036494FF080500860BFF34F8FBFF3D1
:1030F0006F8F0EB010BD0398A0F58071813911D08B
:10310000B0F5C17FF5D10A90DDE90001CDE90B01F1
:103110002B4800680028ECD0022302AA0AA913F069
:103120001BF8DBE7274B0DF1280C0FCB8CE80F00C9
:10313000BDF8000040BA00B200EE100AF8EEC00A76
:103140009FED210AC0EE801ACDED0B1ABDF80200EA
:10315000F5EEC01A40BA00B200EE900AB8EEE01ADE
:10316000C1EE000ACDED0C0ABDF8040040BA00B271
:1031700001EE100A1548B8EEC12A82EE001AF1EEEF
:1031800010FA8DED0D1A12D1F5EEC00AF1EE10FA1B
:103190000DD1B5EEC01AF1EE10FA08D10178491C34
:1031A000C9B201700A2903D90A210170A1E704708C
:1031B00002A90AA80BF02CFB90E7000004ED00E048
:1031C000240000202477010800007A44BC05002078
:1031D0007047000010B58EB0002400946B4603AA1F
:1031E00001210194FFF7C7FC0294002815D105982E
:1031F000A8B1042811D1079802ABC2B2694604985D
:1032000007F002FD0298002807D05B494FF080507C
:103210000860BFF34F8FBFF36F8F0EB010BD0398E0
:10322000A0F281517E290ED80A90DDE90001CDE996
:103230000B01524800680028EFD0022302AA0AA915
:1032400012F08AFFDEE7A0F201717E2904D800F0B7
:103250007F0008F04DFAD5E79FED490AB0F5C87F29
:103260005ED0A0F5807191392DD0B0F5C97FD4D151
:103270009DF800009DF803109DF8012040EA0160D0
:103280009DF802109DF80530090441EA0221084327
:103290009DF804109DF8072001EE100A41EA026132
:1032A0009DF80620B8EEC11A120442EA0322114327
:1032B000494200EE901A0320F8EEE00A60EE800A20
:1032C00021EE000A29E09DF800009DF803109DF80A
:1032D000012040EA01609DF802109DF805300904C4
:1032E00041EA022108439DF804109DF8072001EEF1
:1032F000100A41EA02619DF80620B8EEC11A1204D4
:1033000042EA03221143494200EE901A0220F8EEED
:10331000E00A60EE800A21EE000A0BF041F871E746
:103320009DF800009DF803109DF8012040EA01601F
:103330009DF802109DF80530090441EA0221084376
:103340009DF804109DF8072001EE100A41EA026181
:103350009DF80620B8EEC11A120442EA0322114376
:10336000494200EE901A0120F8EEE00A60EE800A71
:1033700021EE000AD1E7000004ED00E01800002073
:10338000CDCCCC3D7047000070B5044690F82000CD
:10339000012804D0606A40F40020606218E0022036
:1033A00084F820002068016821F00101016000F02C
:1033B00065FC05460EE000BF00F060FC401B0A28DB
:1033C00008D9606A40F400306062052084F820006B
:1033D000012070BD20684068C007EDD1606270BDFB
:1033E00070477047704770477047704770472DE9C6
:1033F000F0410446876D00F041FC064694F8350024
:103400000025022806D08020606584F83450012011
:10341000BDE8F0812068016821F016010160206894
:10342000416921F080014161206C08B9A06C20B194
:103430002068016821F0080101602068016821F01E
:10344000010101600CE000F019FC801B052807D980
:1034500020206065032084F8350084F83450D7E7D5
:1034600020680068C007EED194F85C103F208840C7
:10347000B860012084F8350084F834500020C7E794
:1034800090F83510022903D0802141650120704752
:10349000052180F835100068016821F00101016004
:1034A000002070472DE9F84304464FF00009CDF89D
:1034B000009063484FF41651A56D0068B0FBF1F71A
:1034C0002E6894F85C10082000FA01F131420FD008
:1034D00021680A6852070BD50A6822F004020A60C4
:1034E00094F85C108840A860606D40F00100606551
:1034F00094F85C104FF0010808FA01F0304208D04F
:1035000021684969090604D5A860606D40F0020091
:10351000606594F85C1004208840304208D021682F
:103520000968890704D5A860606D40F004006065F3
:1035300094F85C1010208840304218D02168096847
:10354000090714D5A86020680168490304D50068FC
:10355000000308D5A16C07E00168C90503D4016820
:1035600021F008010160216C09B12046884794F8D8
:103570005C1020208840304231D021680968C9069B
:103580002DD5A86094F8350005282068016806D07C
:10359000490347D5006800031DD4616C1CE021F08D
:1035A000160101602068416921F080014161206CB1
:1035B00008B9A06C20B12068016821F00801016001
:1035C00094F85C103F208840A86084F8358084F827
:1035D0003490216D1FE0E16B09B120468847606D92
:1035E00000282BD0606DC00714D0052084F835006A
:1035F0002068016821F0010101600098401C0090E2
:10360000B84203D820680068C007F6D184F8358036
:1036100084F83490E16C002910D001B02046BDE858
:10362000F04308470168C905D5D4016821F01001AD
:10363000016084F8358084F83490CCE7BDE8F883E5
:10364000440000202DE9F041044600F017FB064637
:103650005CB1022084F83500002584F834502068DD
:10366000016821F0010101600DE00120BDE8F08159
:1036700000F004FB801B052805D92020606503208D
:1036800084F83500F2E720680068C007F0D12268AE
:10369000116820480140D4E901031843D4E90336F6
:1036A0003343184363691843A3691843E369184314
:1036B000236A18430843616A042903D1D4E90B1330
:1036C00019430843106020684069666A20F00701CA
:1036D00030460E43012704280CD1A06A0643E06A55
:1036E00040B12046FEF7AAFB20B14020606584F877
:1036F0003570BAE7206846612046FEF78BFB94F8E8
:103700005C203F2191408160656584F83570002020
:10371000ACE700003F8010F02DE9F0410446866DD3
:1037200090F83400002501280DD0012084F83400E1
:1037300094F835700020012F07D084F8340002255A
:103740002846BDE8F0810220FBE7022784F83570A7
:1037500060652046FEF79CFB94F85C103F20884093
:10376000B0602068016841F016010160206C20B152
:103770002068016841F0080101602068016841F09B
:1037800001010160DCE7000070B5044600F076FA44
:103790000546601C02D004480078044400F06EFA2C
:1037A000401BA042FAD370BD380000202DE9F0473D
:1037B000044622480F46017E01290AD00121804695
:1037C00001764CF250394846FEF77EFE020003D0E7
:1037D0002FE00220BDE8F0874FF0FF30386020680E
:1037E000174D012801D0A6681CE0207C6168FEF717
:1037F000D9FD4846FEF768FE0246286820F004001E
:10380000286014E0217C3046FEF77AFD4846FEF73A
:103810005BFE0200286820F0FA00286001D03E60BC
:1038200005E0761CD4E902100844B042EAD8FEF75D
:103830008FFD002188F818101046CBE7300D0020CE
:10384000103C02400348016841F000410160002043
:1038500070470000103C02402DE9F0471B4E054622
:103860001446307E1F468946012808D00120307654
:103870004CF250384046FEF727FE18B114E0022003
:10388000BDE8F0879DB1012D16D0022D19D022463A
:103890003B464846FEF7AAFD4046FEF715FE0C499A
:1038A0000A6822F001020A6000213176E8E7E1B2FD
:1038B0004846FEF78BFDEFE7A1B24846FEF7ACFDA8
:1038C000EAE721464846FEF7B9FDE5E7300D00205E
:1038D000103C0240074900200A68002A09DA054A1C
:1038E000054B0C3A1360054B13600968002900DA98
:1038F00001207047103C024023016745AB89EFCDA2
:103900002DE9F04F0022DFF838B101264FF00F0902
:1039100006FA02F401EA0403A3427DD122F0030770
:103920005F44D7F8088895074FEA157C09FA0CFA26
:103930000AEA0805DFF80C81404502D14FF0000883
:1039400032E0DFF80481404502D14FF001082BE05E
:10395000DFF8F880404502D14FF0020824E0DFF89C
:10396000F080404502D14FF003081DE0DFF8E4800D
:10397000404502D14FF0040816E0DFF8DC804045F6
:1039800002D14FF005080FE0DFF8D080404502D1AA
:103990004FF0060808E0DFF8C880404502D14FF03C
:1039A000070801E04FF0080808FA0CF8A84522D1F2
:1039B0002C4DD5F800C02CEA030CC5F800C005F169
:1039C000040CDCF800509D43CCF80050254D0C351C
:1039D000D5F800C02CEA030CC5F800C02D1FD5F89F
:1039E00000C02CEA030CC5F800C0D7F8085825EA37
:1039F0000A05C7F80858056857000323BB409D43D4
:103A00000560D50800EB8505D5F820C057074FEABB
:103A1000D76809FA08F700E00CE02CEA070CC5F8B3
:103A200020C0C5689D43C5604568A543456084685E
:103A30009C438460521C102AFFF46AAFBDE8F08FEB
:103A40000030014000000240000402400008024033
:103A5000000C024000100240001402400018024016
:103A6000001C0240003C01402DE9F84FDFF8BCA1EA
:103A70000022012503264FF00F090AF1040BAAF1D9
:103A8000040E00BF0B6805FA02F42340A34270D174
:103A90000F7907F00307012F01D0022F16D1876895
:103AA0004FEA420806FA08FC27EA0C07D1F80CC0D6
:103AB0000CFA08FC4CEA070CC0F808C04768A7439A
:103AC0000C79C4F3001494403C4344600C79E44303
:103AD000A4070AD0C4684FEA420C06FA0CF7BC43AC
:103AE0008F6807FA0CF72743C7600C7904F00304CA
:103AF000022C12D1D40800EB840CDCF820405707CC
:103B0000FF0E09FA07F824EA0804D1F8108008FA31
:103B100007F848EA0408CCF8208004684FEA420C11
:103B200006FA0CF7BC430F7907F0030707FA0CF706
:103B3000274307604C6814F4403F70D03C4C276822
:103B400047F480472760246822F0030704F4804488
:103B50000094384C07EB040CDCF8084897074FEA50
:103B6000177809FA08F7BC43334FB84202D100274F
:103B700024E054E0314FB84201D101271EE0304F1C
:103B8000B84201D1022719E02E4FB84201D10327D4
:103B900014E02D4FB84201D104270FE02B4FB8425B
:103BA00001D105270AE02A4FB84201D1062705E0D6
:103BB000284FB84201D1072700E0082707FA08F785
:103BC0002743CCF80878DAF800405746D1F804C00B
:103BD0009C435FEACC2C00D51C433C60DBF80040E2
:103BE0005F46D1F804C09C435FEA8C2C00D51C438F
:103BF0003C60DEF800407746D1F804C09C435FEAA1
:103C00008C3C00D51C433C60084F083F3C68D1F811
:103C100004C09C435FEACC3C00D51C433C60521C72
:103C2000102AFFF42FAFBDE8F88F0000083C0140D8
:103C300044380240003001400000024000040240CD
:103C400000080240000C0240001002400014024034
:103C500000180240001C02400069084000D001200A
:103C60007047426921EA02030A4043EA0241816146
:103C700070470AB1816170470904FBE70148806819
:103C80007047000038000020D0F8DC0309F0C8BA03
:103C9000D0F8DC0309F0D9BA006809F099BF0068D0
:103CA00009F09ABFC1EB011100EB8100002200F87E
:103CB0001A2F4270C272827210467047C1EB011116
:103CC00000EB810090F84C007047C1EB011100EB54
:103CD0008100806B70472DE9FF4F83B00546DDE919
:103CE000117690F8D403DDF8408093468A46012887
:103CF0001CD0CAEB0A11012305EB810485F8D433EB
:103D00004FF0000984F819900698207584F815A0E2
:103D100084F826700BF07F00A07551462846FFF707
:103D2000C1FF5FEA0B6005D5E37505E0022007B02F
:103D3000BDE8F08F84F81790286809F04DFF012F37
:103D400006D1B8F1010F03D110B9BC2E00D9BC26A1
:103D500084F81880B0B22085CDF80080CDE90170DC
:103D600028685A465146069B09F0ACFF85F8D49363
:103D7000DDE7D0F8DC0309F0DFBA2DE9F0030E46E9
:103D8000DDE906C9DDE90874C1EB061100EB81012C
:103D90000225CA7581F82630BCF1000F0AD081F8DF
:103DA0002A50002463B1012B31D0022B28D0032BE1
:103DB00016D125E04FF0030881F82A804C76F0E711
:103DC000BCF1010F0CD11AB18A7E012A19D007E08B
:103DD000D7B9012281F83D2000E0C2B181F82A5014
:103DE000C1F82C904F6381F84C408C634E7581F87C
:103DF0004D4082790068BDE8F003143109F0F2BF4C
:103E000012B191F83C20E8E791F83D20E5E781F810
:103E10002A40E5E72DE9F04106680446304609F0FE
:103E2000E2FE012877D120680AF098F9002872D0C4
:103E300020680AF093F9800203D521684FF400103E
:103E4000486120680AF08AF9C00203D521684FF45E
:103E50008010486120680AF081F9400103D521688B
:103E60004FF08060486120680AF078F9800702D539
:103E700021680220486120680AF070F9800018D596
:103E800021684FF000504861D6F84004C00710D1B7
:103E90001021304609F05EFE304609F03FFE607AA0
:103EA000022803D1012120680AF034F92046FFF7E7
:103EB000EFFE20680AF052F9C00102D5204602F058
:103EC000ACF920680AF04AF9000705D5204600F051
:103ED000C8F821680820486120680AF03FF980018D
:103EE00024D5206809F07AFF074600254FF0010825
:103EF00015E000BF05F00F0108FA01F038420DD0BF
:103F000006EB4510D0F80005E9B20004204603D5C1
:103F100001F054FE02E01CE002F00EF86D1C607926
:103F2000A842E7D821684FF00070486120680AF085
:103F300015F9C043C0060CD42068816921F0100136
:103F40008161204602F0B3F92068816941F01001D7
:103F50008161BDE8F081F8B5040005D094F8D5037F
:103F60002568002610B106E00120F8BD84F8D4636E
:103F7000204600F029F8032084F8D503B5F1A04FBE
:103F800000D1A671206809F095FD207C8DF8000015
:103F900094E80F0009F02EFD022560B90121206888
:103FA0000AF018F938B9207C8DF8000094E80F0069
:103FB0000AF048F810B184F8D553D5E7012084F809
:103FC000D5030020F8BD000010B586B004461421CA
:103FD0006846FCF7A1F92068B0F1A04F2FD119482D
:103FE0000021026842F001020260006800F0010056
:103FF00005904FF4C05000900220CDE9010103204C
:1040000003900A20049069460F48FFF72DFD0D48E4
:10401000001D016841F0800101600A481430016808
:1040200041F4804101600068002200F48040059066
:104030000521432000F0DAF8432000F0C9F806B06B
:1040400010BD00003038024000000240D0F8DC0310
:1040500009F08FB9D0F8DC0309F08FB900680AF0D5
:10406000A0B8D0F8DC0309F030B910B5044690F8D8
:10407000D40301280DD0012084F8D4030121206845
:1040800009F030FD206809F043FD002084F8D403D6
:1040900010BD022010BD10B5044690F8D4030128CD
:1040A00009D0012084F8D40320680AF0C1F8002068
:1040B00084F8D40310BD022010BD000002488168BE
:1040C0000278114481607047380000200B4810B519
:1040D000016841F400710160016841F48061016090
:1040E000016841F480710160032000F09FF80F2007
:1040F00000F006F800F050F8002010BD003C02402F
:1041000030B505461F4887B00024016841F0200102
:104110000160006806A900F02000009001A800F0EE
:1041200031F90498A8B100F04DF940001649174A3A
:10413000B0FBF1F11648491E026040F2E732C0E9D7
:104140000324C0E90114846100F0B6FB040003D02D
:1041500015E000F037F9E9E70D4800F0FDFC040038
:104160000DD1372000F034F8102D07D20022294657
:10417000372000F03BF80748056000E0012407B055
:10418000204630BD4038024040420F00001400403D
:10419000E80C00203C0000200C4882B0016841F48B
:1041A00080410160006800F4804000900748001FD3
:1041B000016841F0805101600068002200F08050E9
:1041C00000900F21901E02B000F010B84438024059
:1041D000002809DB00F01F02012191404009800006
:1041E00000F1E020C0F8001170470000F0B40E4B61
:1041F0001B680C46C3F30223C3F10705042D00D945
:104200000425191D072901D2002300E0DB1E012629
:1042100006FA05F1491E214099409E40761E16403F
:104220003143F0BC0AF009BD0CED00E0064900F096
:10423000070208684FF6FF03184040EA0220034ACD
:1042400010430860704700000CED00E00000FA0524
:104250002DE9F0470E46050065D0DFF81481D8F847
:104260000000F7B200F00700B04207D288F80070F3
:10427000D8F8000000F00700B04254D128683D4C47
:10428000810712D5400703D5206840F4E050206034
:104290002878000703D5206840F46040206020683B
:1042A000A96820F0F000084320602878C0072DD0CE
:1042B000304968680839012812D0022813D0032831
:1042C00011D00968890700292DDA216821F003013E
:1042D00001432160FFF7D2FC814641F2883A0EE0AB
:1042E00009688903EFE709688901ECE7FFF7C6FC75
:1042F000A0EB0901514502D90320BDE8F0872068F1
:10430000696800F00C00B0EB810FEFD1D8F8001015
:10431000404601F00701B14207D90770006800F07C
:104320000700B04201D00120E7E72878400705D513
:104330002068E96820F4E0500843206028780007EE
:1043400006D52068296920F4604040EAC100206059
:1043500000F058F82168084AC1F30311515CC840C5
:104360000649086006480068FFF7CAFE0020C4E757
:10437000003C024008380240B06B010844000020B5
:104380003C0000200F2202600C4A136803F0030374
:104390004360136803F0F0038360136803F4E05391
:1043A000C36012684FF4E05303EAD202026104488A
:1043B000006800F0070008607047000008380240FD
:1043C000003C02400448054900680968044AC1F3FA
:1043D0008221515CC84070474400002008380240E8
:1043E000C06B01080448054900680968044AC1F324
:1043F0004231515CC84070474400002008380240F8
:10440000C06B0108154810B5006810F00C02144884
:1044100013D04110042A0FD0082A0ED10F4C241FAC
:104420002268236802F03F025B0207D52068C0F3D0
:104430008810A0FB010106E0084610BD2168C1F309
:104440008811A1FB00010023FBF71CFF2168C1F3C9
:104450000141491C4900B0FBF1F010BD0838024091
:104460000024F4002DE9F84F04006ED02078DFF826
:104470004C93C007A9F104054AD009F10400016872
:10448000C1F38101012908D00068C0F3810002282E
:104490000AD1D9F80000400206D52868800337D534
:1044A00060680028E1D033E06068B0F5803F10D04C
:1044B000B0F5A02F286810D020F48030286028683C
:1044C00020F4802028606068A8B1FFF7D7FB06467B
:1044D0000DE0286840F48030F4E740F48020286044
:1044E000F7E700BFFFF7CAFB801B642873D8286872
:1044F0008003F7D50CE0FFF7C1FB064605E000BFDF
:10450000FFF7BCFB801B6428F0D828688003F7D431
:104510002078DFF8AC8280074FF0000A3ED5A7482C
:10452000001D016811F00C0F08D00068C0F3810075
:1045300002280BD1D9F80000400207D42868800770
:1045400016D5E068012800D112E033E1E068B8B187
:104550000120C8F80000FFF791FB064605E000BF08
:10456000FFF78CFB801B0228C0D828688007F7D58E
:104570002868216920F0F80040EAC10028600DE0B9
:10458000C8F800A0FFF77AFB064604E0FFF776FBC9
:10459000801B02281FD828688007F7D420780007DE
:1045A00022D5864F87486169703771B1012101605A
:1045B000FFF764FB064604E0FFF760FB801B022860
:1045C00009D838688007F7D50EE0C0F800A0FFF7DB
:1045D00055FB064605E082E0FFF750FB801B0228F2
:1045E0007DD838688007F7D42078400768D5DFF891
:1045F000CCB100270BF13C0BDBF80000C0000BD462
:10460000DBF8001041F08051CBF80010DBF800001F
:10461000012700F0805000906B4E3068C00510D428
:10462000306840F480703060FFF728FB009005E0B0
:10463000FFF724FB0099401A022850D83068C005C3
:10464000F6D55E4EA0686C3601280FD0052830687C
:1046500010D020F001003060306820F0040030609D
:10466000A068B8B1FFF70AFB00900FE0306840F097
:104670000100F4E740F004003060F7E7FFF7FEFACE
:104680000099411A41F28830814266D8306880072B
:10469000F4D50EE0FFF7F2FA009007E0FFF7EEFA2C
:1046A0000099411A41F28830814256D8306880071B
:1046B000F4D42FB1DBF8001021F08051CBF80010BA
:1046C000A069C8B33D49091D0968C1F381010229E8
:1046D0004AD00228504607D0C8F8600000E03CE00D
:1046E000FFF7CCFA04463BE04746C8F86000FFF706
:1046F000C5FA064605E000BFFFF7C0FA801B022896
:104700002BD828688001F7D4D4E907010843A16AAF
:104710002E4A490802EB0141626A41EA82110843CC
:1047200094F82C1040EA0161C9F8001001203866A5
:10473000FFF7A4FA044606E03EE000BFFFF79EFA4A
:10474000001B022809D828688001F7D534E000BF93
:10475000FFF794FA001B022802D90320BDE8F88F66
:1047600028688001F4D427E00128F7D0D9F80000A8
:10477000E26900F4800191421CD1226A00F03F01FD
:10478000914217D147F6C071626A0140B1EB821FB6
:1047900010D1A26A4FF0FF3300F4403103EB520214
:1047A000B1EB024F06D194F82C1000F07060B0EB22
:1047B000016F01D00120D1E70020CFE7043802408B
:1047C00000004742800E4742007000400000FFFF9B
:1047D0007047704710B590F83C20012A22D0012282
:1047E00080F83C20CA688C6822F4407222434C68EE
:1047F00022F4806222430C6822F4006222430C6996
:1048000022F4805222434C6922F400522243C969A7
:10481000002322F480420A4301684A6480F83C3055
:10482000002010BD022010BD70B590F83C20012A78
:1048300032D0012480F83C40022280F83D200368F9
:104840005A689D6822F070060A6832435A60134B1A
:1048500002689A4214D0B2F1804F11D0104B9A42A4
:104860000ED0104B9A420BD00F4B9A4208D00F4BF0
:104870009A4205D00E4B9A4202D00E4B9A4204D176
:10488000496825F080031943916080F83D4000217C
:1048900080F83C10084670BD022070BD0000014049
:1048A0000004004000080040000C004000040140EB
:1048B000004001400018004010B5040003D094F8F7
:1048C0003D0010B107E0012010BD002084F83C003D
:1048D000204600F01FF8022084F83D00211D2068CA
:1048E00007F0DEF9012084F8460084F83E0084F8E1
:1048F0003F0084F8400084F8410084F8420084F8C6
:10490000430084F8440084F8450084F83D0000200A
:1049100010BD0000F0B587B0044614216846FBF7CF
:10492000FBFC654A236800256349103A03260224EC
:104930006248B3F1804F35D0614FBB4252D10B6812
:1049400043F002030B60096801F002010591116850
:1049500041F001011160116801F001010591116838
:1049600041F002011160116801F002010591C021BE
:104970008DE83200CDE903546946FFF775F80096DB
:10498000CDE90145CDE9035469464E48FFF76CF87F
:10499000002205211D20FFF729FC1D20FFF718FC30
:1049A00007B0F0BD0B6843F001030B60096801F02C
:1049B00001010591116841F0010111601168009633
:1049C00001F001010591CDE901450121CDE9035136
:1049D0006946FFF749F8002205211C20FFF706FC75
:1049E0001C20DBE73848834237D1086840F00400D8
:1049F0000860086800F004000590106840F00800A6
:104A000010601068314E00F0080005904FF44050DF
:104A1000CDE90004CDE90245694630460494FFF72C
:104A200023F84FF400408DE83100CDE90354694686
:104A30003046FFF719F84FF48040CDE90004CDE986
:104A40000245694630460494FFF70EF8002205211E
:104A50001E20FFF7CBFB1E20A0E71D48834207D195
:104A6000086840F010000860086800F010000BE0D3
:104A700011481849001D8B4208D1016841F002011C
:104A80000160006800F00200059089E712498B423E
:104A900007D1016841F480310160006800F4803082
:104AA000F2E70E498B42F0D1016841F480210160A8
:104AB000006800F48020E7E7403802400000024030
:104AC000000400400004024000080040000C0240C6
:104AD0000010004000040140004001400048014037
:104AE00090F83D10012901D001207047022180F883
:104AF0003D1000681149884214D0B0F1804F11D0A8
:104B00000F4988420ED00F4988420BD00E49884287
:104B100008D00E49884205D00D49884202D00D497F
:104B2000884204D1816801F00701062903D0016899
:104B300041F00101016000207047000000000140C9
:104B40000004004000080040000C00400004014048
:104B5000004001400018004090F83D10012901D0AC
:104B600001207047022180F83D100168CA6842F0B8
:104B70000102CA6000681149884214D0B0F1804F28
:104B800011D00F4988420ED00E4988420BD00E49F1
:104B9000884208D00D49884205D00D49884202D08C
:104BA0000C49884204D1816801F00701062903D02D
:104BB000016841F0010101600020704700000140E0
:104BC0000004004000080040000C004000040140C8
:104BD000004001400018004070B5044690F83C00C9
:104BE0000025012817D0012684F83C60022084F8B3
:104BF0003D002068826822F0770222F47F428260C2
:104C00000868502838D00DDC20284FD005DC90B340
:104C1000102811D14AE0022070BD302846D040282B
:104C20000AD13BE060282FD070280DD0B0F5805F0E
:104C300003D0B0F5005F12D0012584F83D6000205C
:104C400084F83C00284670BDCB68D1E9012120687A
:104C500007F09FF82068816841F0770109E0CB6890
:104C6000D1E90121206807F094F82068816841F4B7
:104C700080418160E1E719E0CA684968206807F06F
:104C80005DF95021206806E0CA684968206807F08D
:104C9000A7F96021206807F086F8CEE7CA6849685E
:104CA000206807F04BF940212068F4E722680146AC
:104CB0001046F0E738B504460020009011F054FD8E
:104CC000022815D10B48844203D1204606F040FE4D
:104CD00003E06946204603F09FFF0098002807D0B4
:104CE00005494FF080500860BFF34F8FBFF36F8FBF
:104CF00038BD0000E008002004ED00E02DE9F0419F
:104D0000054690F83C0000260C46012810D00120F2
:104D100085F83C0072B1042A1CD0082A2CD00C2A39
:104D200050D00126002085F83C003046BDE8F081D7
:104D30000220FBE7D4E90012E368286807F010F9C5
:104D40002868816921F00C01816128688169A26865
:104D500011430FE0D4E90012E368286807F052F924
:104D60002868816921F44061816128688169A268AD
:104D700041EA02218161D5E72868D4E9002C277B2C
:104D8000036A016A21F480710162C16923F420631E
:104D900021F0030141EA0C0121F0F00C39074FF436
:104DA00020674CEA116107EA02221A43C1610262DC
:104DB0002868C16921F00C01C1612868C169A26835
:104DC00011432BE02868D4E90021E768036AD0F892
:104DD00020C02CF4805CC0F820C0D0F81CC023F4A4
:104DE00020432CF4407C4CEA012121F4704C4FF616
:104DF000FF7101EA07314FF4204741EA0C0107EA4D
:104E000002321A43C16102622868C16921F440611B
:104E1000C1612868C169A26841EA0221C16181E7D4
:104E200010B5040003D094F83D0010B107E0012054
:104E300010BD002084F83C00204600F01EF802203F
:104E400084F83D00211D206806F02AFF012084F827
:104E5000460084F83E0084F83F0084F8400084F85F
:104E6000410084F8420084F8430084F8440084F848
:104E7000450084F83D00002010BD704730B5044661
:104E8000002551B104290DD0082910D094F8410013
:104E900094F84520012811D10EE094F83E0094F8D2
:104EA0004220F7E794F83F0094F84320F2E794F8A3
:104EB000400094F84420EDE7012A01D0012030BDE4
:104EC000022059B1042912D0082919D084F84100D0
:104ED00084F845000C2944D0012540E084F83E00C8
:104EE00084F842002068C26842F0020210E084F8B0
:104EF0003F0084F843002068C26842F0040207E0E3
:104F000084F8400084F844002068C26842F0080237
:104F1000C2600122206806F02FFF144920688842F1
:104F200014D0B0F1804F11D0114988420ED01149F0
:104F300088420BD01049884208D01049884205D0D9
:104F40000F49884202D00F49884204D1816801F09C
:104F50000701062903D0016841F0010101602846DC
:104F600030BD2068C26842F01002D1E70000014065
:104F70000004004000080040000C00400004014014
:104F8000004001400018004070B50D0004464FF08D
:104F9000000607D0042D0AD0082D0DD00C2D10D0FE
:104FA00001262FE02068C16821F002010DE0206891
:104FB000C16821F0040108E02068C16821F00801FF
:104FC00003E02068C16821F01001C1600022294679
:104FD000206806F0D1FE2068016A41F211121142E8
:104FE00007D1016A9210114203D1016821F0010139
:104FF0000160012045B1042D09D0082D0AD004F824
:10500000410F2071304670BD04F83E0FF9E704F8F7
:105010003F0FF6E704F8400FF3E72DE9F0410446AF
:105020000068C66805694FF00007A90713D5B107E6
:1050300011D5F91E01610120207720688069800761
:10504000204602D0FFF736FE04E000F0D9F82046F3
:1050500000F06BF92777680716D5700714D521681B
:105060006FF004000861022020772068806910F446
:10507000407F204602D0FFF71DFE04E000F0C0F89C
:10508000204600F052F92777280715D5300713D5A9
:1050900021686FF008000861042020772068C0694B
:1050A0008007204602D0FFF705FE04E000F0A8F8D4
:1050B000204600F03AF92777E80616D5F00614D511
:1050C00021686FF010000861082020772068C0690F
:1050D00010F4407F204602D0FFF7ECFD04E000F022
:1050E0008FF8204600F021F92777E80708D0F0076D
:1050F00006D021686FF001000861204600F07AF9BF
:10510000280608D5300606D521686FF080000861B2
:105110002046FFF75DFB680608D5700606D52168B6
:105120006FF040000861204600F083F9A8060AD518
:10513000B00608D521686FF0200008612046BDE860
:10514000F041FFF746BBBDE8F081000030B587B005
:10515000044614216846FBF7DFF82468214D00203F
:10516000214902220323AC4210D10C6844F004040C
:105170000C60096801F004010591C0210091CDE99E
:105180000120CDE903036946184812E0184DAC42EE
:1051900013D10C6844F010040C60096801F0100190
:1051A000059160210091CDE90120CDE90303694615
:1051B0001048FEF759FC07B030BD0F4DAC42FAD194
:1051C0000C6844F002040C60096801F002010591CA
:1051D00069150091CDE90120CDE90303694607482F
:1051E000E7E70000000401403038024000080240B8
:1051F000004001400010024000480140000402400D
:10520000704770B5044690F83C0000260D46012812
:105210000FD0012084F83C006AB1042A1DD0082A6E
:105220002FD00C2A3FD00126002084F83C003046C5
:1052300070BD022070BD206806F0BEFD2068816947
:1052400041F0080181612068816921F004018161D8
:10525000206881692A69114311E0206806F0DCFDAD
:105260002068816941F4006181612068816921F4CD
:1052700080618161206881692A6941EA0221816136
:10528000D2E7206806F0FEFD2068C16941F0080100
:10529000C1612068C16921F00401C1612068C16950
:1052A0002A69114311E0206806F020FE2068C169D8
:1052B00041F40061C1612068C16921F48061C1616C
:1052C0002068C1692A6941EA0221C161ACE710B5D1
:1052D000040003D094F83D0010B107E0012010BD98
:1052E000002084F83C00204600F01EF8022084F8DC
:1052F0003D00211D206806F0D3FC012084F8460003
:1053000084F83E0084F83F0084F8400084F84100AF
:1053100084F8420084F8430084F8440084F845008F
:1053200084F83D00002010BD7047704710B504465A
:10533000022249B104290ED0082913D094F8410063
:10534000012816D0012010BD94F83E000128F9D1A3
:1053500084F83E200FE094F83F000128F2D184F851
:105360003F2008E094F840000128EBD184F8402069
:1053700001E084F841200122206806F0FDFC164976
:105380002068164A884201D0904203D1436C43F40E
:10539000004343642068884213D0B0F1804F10D09E
:1053A0000F4988420DD00F4988420AD00E498842E1
:1053B00007D0904205D00D49884202D00C4988425E
:1053C00004D1816801F00701062903D0016841F08A
:1053D00001010160002010BD0000014000040140F7
:1053E0000004004000080040000C00400040014064
:1053F0000018004000680349884201D1FEF75EBEF4
:1054000070470000001400400246002041B104290A
:1054100009D008290AD00C2901D11068006C704706
:105420001068406B70471068806B70471068C06BE5
:105430007047704770477047F8B5016804460868C0
:10544000CA684B6910F00F0F4FF0000559D003F0F8
:10545000010602F49077374365D0C10705D0D10526
:1054600003D5616C41F001016164410705D5D9079D
:1054700003D0616C41F002016164810705D5D90751
:1054800003D0616C41F004016164010707D502F0AB
:105490002001314303D0616C41F008016164616C0B
:1054A00000293AD0800604D5900602D5204606F0A1
:1054B00053FE20684069616CC0F38010090700D476
:1054C00060B3204606F013FE20684069400621D5EF
:1054D0002068143050E8001F21F0400140E800121D
:1054E000002AF5D1E06BA8B16E490165E06BFDF7CC
:1054F000C7FF002811D0E06B016D01B0BDE8F0409E
:10550000084783060FD593060DD52046BDE8F84021
:1055100006F022BE2046FFF78EFFF8BD2046FFF7BB
:105520008AFF6564F8BD266B2023012E7DD1C60657
:105530007BD5D60679D508684868009048694FF051
:105540000206400641D5E16B086840680004000C83
:10555000E8D0A28D8242E5D9E085C869B0F5807FA8
:105560002DD020680C3050E8001F21F4807140E8F5
:105570000012002AF5D12068143050E8001F21F0F5
:10558000010140E80012002AF5D12068143050E8EB
:10559000001F21F0400140E80012002AF5D184F8F4
:1055A0004230256320680C3050E8001F21F01001C4
:1055B00040E80012002AF5D1E06BFDF718FF6663A2
:1055C000A08DE18D401A81B22AE0A08DE18D401AB4
:1055D00081B2E08D0028A5D00029A3D022680C322A
:1055E00052E8000F20F4907042E80007002FF5D138
:1055F0002068143050E8002F22F0010240E8002714
:10560000002FF5D184F84230256320680C3050E833
:10561000002F22F0100240E80023002BF5D1666332
:105620002046FFF707FFF8BDFFE705062BD5150657
:1056300029D594F841002128F5D1A068B0F5805F04
:1056400001D12069B0B1206A411C21622168007833
:105650004860E08C401E0004000CE084E3D1206828
:10566000C16821F08001C1602068C16841F040013B
:10567000C160D8E7206A0088C0F308004860206A4B
:10568000801C2062E5E74006CDD55006CBD5CA6820
:10569000204622F04002CA6084F8413000F08CFAC3
:1056A000C1E7000049C0000870B5040004D094F8B8
:1056B0004100002510B106E0012070BD84F8405083
:1056C000204600F023F8242084F841002068C168B7
:1056D00021F40051C160204606F0A0FD2068016958
:1056E00021F4904101612068416921F02A01416162
:1056F0002068C16841F40051C1606564202084F8CD
:10570000410084F842006563002070BD2DE9F04F30
:1057100087B0054614216846FAF7FEFD9448DFF885
:105720004C8210380221D5F800C00024904B03228F
:105730008E0607154FF4406B4FF0400AC4453ED12A
:10574000D3F800C04CF4002CC3F800C01B6803F46D
:1057500000230593036843F0040303600068CDF859
:1057600000B000F004000590CDE901140820CDE957
:10577000032069467F48FEF777F9DFF800827E490B
:105780004046C0E90347C8F81440C8F81840C8F8B4
:105790001C40C8F8204088E84204C8F82440FDF7BF
:1057A00051FF08B1FCF7AAFDC5F838800022052199
:1057B0003420C8F83850FEF719FD342048E0DFF8EF
:1057C000C081DFF8C0E14FF00709C44545D1684BFF
:1057D0001B1DD3F800C04CF0100CC3F800C01B68B0
:1057E00003F010030593036843F0010303600068AE
:1057F00000F0010005904FF4C0608DE81300CDE982
:10580000032969467046FEF72FF9DFF870815E497B
:1058100008F160084046C0E90347C8F81440C8F8DA
:105820001840C8F81C40C8F8204088E84204C8F86E
:105830002440FDF707FF08B1FCF760FDC5F838808C
:10584000002205212520C8F83850FEF7CFFC25207E
:10585000FEF7BEFC07B0BDE8F08FDFF83081C4452D
:105860003FD1D3F800C04CF4003CC3F800C01B6823
:1058700003F400330593036843F0010303600068F9
:1058800000F0010005900C208DE81300CDE90329FC
:1058900069467046FEF7E8F8DFF8E080364908F11F
:1058A000C00840463031C0E90347C8F81440C8F882
:1058B0001840C8F81C40C8F8204088E84204C8F8DE
:1058C0002440FDF7BFFE08B1FCF718FDC5F838808D
:1058D000002205212620C8F83850FEF787FC262034
:1058E000B6E7DFF8AC80C445B4D1D3F800C04CF4BF
:1058F000802CC3F800C01B6803F480230593036861
:1059000043F0020303600068CDF800B00392CDE9D4
:10591000011400F00200CDE9049069461D48FEF72D
:10592000A3F81549DFF8708048394046C8F80010E0
:10593000C0E90164C0E90347C8F81440C8F818403A
:10594000C8F81C40C8F82040C8F82440FDF77AFE8B
:1059500008B1FCF7D3FCC5F83C80002205212720C4
:10596000C8F83850FEF742FC272071E7004C004091
:10597000403802400008024070600240680B00207E
:105980000010014000000240B864024000440040A2
:105990000048004000040240880C002090F842308B
:1059A000202B01D00220704721B11AB100230363DC
:1059B00006F0BABC01207047F8B5002100912C49CF
:1059C00088420BD12B48006820B100236A462A493F
:1059D00010F0C2FB0122284925483AE02849274A0D
:1059E000284C0D6890420FD10120207045B1002352
:1059F0006A462549284610F0AFFB10F0C9FE6060EA
:105A0000012221491D4824E0204988421BD12078E9
:105A1000022602280BD326708DB100236A461C494A
:105A2000284610F099FB10F0B3FE606007E010F01C
:105A3000AFFE6168401AB0F5FA6F00D926700122F6
:105A40001349124805E0134988420FD10122124937
:105A50001048FFF7A3FF0098002807D00F494FF028
:105A600080500860BFF34F8FBFF36F8FF8BD000009
:105A7000D80A00201C00002001000020480A002055
:105A800020000020C005002002000020900A002015
:105A900003000020200B00200400002004ED00E0A3
:105AA0002DE9F843044690F84100984616460D4605
:105AB000202802D00220BDE8F88385B17EB1002005
:105AC0006064212084F84100FEF7D8F8A68481465E
:105AD000E684A0682027B0F5805F02D003E00120B3
